:1000000045C0000060C000005EC000005CC0000091
:100010005AC0000058C0000056C0000054C0000084
:1000200052C0000050C000004EC000004CC0000094
:100030004AC000007EC0000046C0000044C000006E
:1000400042C0000040C000003EC000003CC00000B4
:100050003AC0000038C0000036C0000034C00000C4
:1000600032C0000030C000002EC000002CC00000D4
:100070002AC0000028C0000026C0000024C00000E4
:1000800022C0000020C000001EC0000011241FBEBE
:10009000CFEFD0E4DEBFCDBF11E0A0E0B1E0E6E8F5
:1000A000FDE000E00BBF02C007900D92A433B10742
:1000B000D9F721E0A4E3B1E001C01D92A135B20758
:1000C000E1F7C4D15EC69CCF60930001709301013B
:1000D000809302019093030160933701709338017C
:1000E0008093390190933A0108958BE080938100C9
:1000F0008DE790E0909389008093880082E0809360
:100100006F00109285001092840080910001909100
:100110000101A0910201B0910301809337019093F6
:100120003801A0933901B0933A018FB780688FBF2F
:1001300008951F920F920FB60F9211248F939F93E1
:10014000AF93BF938091370190913801A09139010D
:10015000B0913A010197A109B109809337019093B9
:100160003801A0933901B0933A01892B8A2B8B2B4C
:1001700099F481E080933B0180910001909101010D
:10018000A0910201B091030180933701909338014F
:10019000A0933901B0933A01BF91AF919F918F9194
:1001A0000F900FBE0F901F901895181619065CF04F
:1001B0000895000021503109E1F74F5F5F4F841728
:1001C000950719F4089540E050E027E033E0F1CFBF
:1001D000CF92DF92EF92FF926B017C0120E030E042
:1001E000A9017BD1811106C0E1E9F0E0808188702E
:1001F000808305C0E1E9F0E080818360808328E5A9
:1002000039E344E75FE3C701B60167D188235CF4B3
:100210008FEF9FEF909399008093980090939B00AD
:1002200080939A002BC020E03CE742E957E4C701E5
:10023000B60165D218164CF41092990010929800ED
:1002400010929B0010929A0019C020E030E44CE913
:1002500059E4C701B60157D29B01AC0160E876E9C9
:1002600088E99CE43ED1A5D1615071097093990051
:100270006093980070939B0060939A001092950091
:1002800010929400FF90EF90DF90CF90089580E55A
:100290008093900089E0809391000895EAE7F0E070
:1002A0008081806E80830895ECE7F0E09081987FF4
:1002B000908390818770982B9083EAE7F0E08081AB
:1002C00084FFFDCF8091780090917900089580910E
:1002D0003C018130D9F120F0823009F46DC0A6C014
:1002E00080E0E2DF80933501909336019F938F93F6
:1002F00084E091E09F938F938DE391E09F938F93A0
:1003000065D280913501909136010F900F900F903A
:100310000F900F900F90813322E0920728F429B1BB
:100320008731924068F006C082E080933C011092D1
:10033000340186C089B110923C011092340178C01A
:1003400081E080933C011092340177C080E0ACDF03
:1003500080933501909336019F938F9385E191E0CF
:100360009F938F938DE391E09F938F932FD28091F2
:100370003501909136010F900F900F900F900F90D4
:100380000F90813322E0920728F429B187319240FF
:1003900068F006C082E080933C011092340150C0A6
:1003A00089B110923C011092340142C081E08093E7
:1003B0003C011092340141C080E076DF809335012A
:1003C000909336019F938F9384E291E09F938F9354
:1003D0008DE391E09F938F93F9D1809135019091B6
:1003E00036010F900F900F900F900F900F90813368
:1003F00022E0920728F429B18731924088F00AC0A0
:100400001092340180913C018130B9F088F0823043
:10041000D1F416C089B110923C011092340108C089
:1004200081E080933C011092340107C010923C019E
:1004300040984298419843980895409A429A089566
:10044000439A419A089510923C01089580EC8AB92C
:100450008FE38BB980EF81B98FE082B98FEF84B9D8
:1004600015B88FE787B980E888B918DF64E670E0CF
:1004700080E090E029DE39DE60E070E080EF91E41A
:10048000A7DE05DFC0E8379B02C0489B09C0289A59
:10049000CBB982E390E089DE1BB81092340115C01D
:1004A000489B08C0409A429A82E390E07EDE4098E2
:1004B00042980BC0489B08C0439A419A82E390E05F
:1004C00074DE4398419801C0289801DF80913B0178
:1004D0008823E1F310923B01D6CF9CD008F481E051
:1004E00008950CD0D2C0CAD040F0C1D030F021F471
:1004F0005F3F19F0B3C05111FCC0B6C0D7D098F31C
:100500009923C9F35523B1F3951B550BBB27AA2794
:1005100062177307840738F09F5F5F4F220F331F06
:10052000441FAA1FA9F333D00E2E3AF0E0E830D0D2
:1005300091505040E695001CCAF729D0FE2F27D0D5
:10054000660F771F881FBB1F261737074807AB07A3
:10055000B0E809F0BB0B802DBF01FF2793585F4F18
:100560002AF09E3F510568F079C0C3C05F3FECF3AD
:10057000983EDCF3869577956795B795F7959F5FDD
:10058000C9F7880F911D9695879597F90895E1E031
:10059000660F771F881FBB1F621773078407BA0790
:1005A00020F0621B730B840BBA0BEE1F88F7E095EB
:1005B000089504D06894B1119CC008957FD088F04C
:1005C0009F5790F0B92F9927B751A0F0D1F0660F3F
:1005D000771F881F991F1AF0BA95C9F712C0B1305A
:1005E00081F086D0B1E0089583C0672F782F8827E7
:1005F000B85F39F0B93FCCF3869577956795B39599
:10060000D9F73EF490958095709561957F4F8F4F07
:100610009F4F0895990F0008550FAA0BE0E8FEEFD1
:1006200016161706E807F907C0F012161306E407B6
:10063000F50798F0621B730B840B950B39F40A26AF
:1006400061F0232B242B252B21F408950A2609F48D
:10065000A140A6958FEF811D811D089597F99F6791
:1006600080E870E060E008959FEF80EC089500243A
:100670000A941616170618060906089500240A9407
:1006800012161306140605060895092E0394000C8D
:1006900011F4882352F0BB0F40F4BF2B11F460FF1C
:1006A00004C06F5F7F4F8F4F9F4F089557FD905845
:1006B000440F551F59F05F3F71F04795880F97FB26
:1006C000991F61F09F3F79F08795089512161306E0
:1006D0001406551FF2CF4695F1DF08C0161617060F
:1006E0001806991FF1CF8695710561050894089544
:1006F000E894BB2766277727CB0197F908958ADF0F
:1007000008F48FEF08950BD0C0CFB1DF28F0B6DF2B
:1007100018F0952309F0A2CFA7CF1124EACFC6DFA6
:10072000A0F3959FD1F3950F50E0551F629FF00104
:10073000729FBB27F00DB11D639FAA27F00DB11D5D
:10074000AA1F649F6627B00DA11D661F829F2227E6
:10075000B00DA11D621F739FB00DA11D621F839F6D
:10076000A00D611D221F749F3327A00D611D231F43
:10077000849F600D211D822F762F6A2F11249F5791
:1007800050408AF0E1F088234AF0EE0FFF1FBB1FB4
:10079000661F771F881F91505040A9F79E3F510553
:1007A00070F05CCFA6CF5F3FECF3983EDCF386950C
:1007B00077956795B795F795E7959F5FC1F7FE2BFE
:1007C000880F911D9695879597F908950F931F931C
:1007D000CF93DF93CDB7DEB72E970FB6F894DEBF79
:1007E0000FBECDBF0D891E8986E08C831A830983D5
:1007F0008FEF9FE79E838D83AE01475E5F4F6F89CA
:10080000788DCE01019610D0EF81F885E00FF11FB1
:1008100010822E960FB6F894DEBF0FBECDBFDF91CB
:10082000CF911F910F9108952F923F924F925F9217
:100830006F927F928F929F92AF92BF92CF92DF92F0
:10084000EF92FF920F931F93CF93DF93CDB7DEB755
:100850002B970FB6F894DEBF0FBECDBF6C017B01A6
:100860008A01FC0117821682838181FFBFC1CE01FC
:1008700001963C01F6019381F70193FD859193FF69
:1008800081917F01882309F4ADC1853239F493FD4C
:10089000859193FF81917F01853221F4B60190E02B
:1008A000D6D1E8CF912C212C312CFFE1F315D8F0D3
:1008B0008B3279F038F4803279F08332A1F4232D31
:1008C00020611DC08D3261F0803369F4232D2160D9
:1008D00016C0832D8260382EE32DE4603E2E2AC0A0
:1008E000F32DF8601DC037FC2DC020ED280F2A30F5
:1008F00040F08E32B9F436FC75C1232D2064322EBF
:1009000019C036FE06C08AE0989E200D1124922E52
:1009100011C0EAE02E9E200D1124222EF32DF0624C
:100920003F2E08C08C3621F4832D8068382E02C0FB
:10093000883641F4F70193FD859193FF81917F0102
:100940008111B3CF982F9F7D9554933028F40C5F7D
:100950001F4F9FE399830DC0833631F0833771F0C9
:10096000833509F055C020C0F801808189830E5F6E
:100970001F4F88248394912C530112C02801F2E068
:100980004F0E511CF801A080B18036FE03C0692DC6
:1009900070E002C06FEF7FEFC5014ED14C018201C4
:1009A000F32DFF773F2E15C0280122E0420E511C87
:1009B000F801A080B18036FE03C0692D70E002C04E
:1009C0006FEF7FEFC5012DD14C01F32DF0683F2E65
:1009D000820133FC19C0822D90E088169906A0F49C
:1009E000B60180E290E033D12A94F5CFF50137FCCF
:1009F000859137FE81915F01B60190E028D12110E9
:100A00002A9421E0821A91088114910479F7E1C0B7
:100A1000843611F0893639F5F80137FE07C0608158
:100A20007181828193810C5F1F4F08C06081718149
:100A3000072E000C880B990B0E5F1F4FF32DFF76CE
:100A40003F2E97FF09C090958095709561957F4FD7
:100A50008F4F9F4FF0683F2E2AE030E0A30133D143
:100A6000882E861844C0853731F4232D2F7EB22E70
:100A70002AE030E025C0932D997FB92E8F36C1F042
:100A800018F4883579F0AEC0803719F0883721F036
:100A9000A9C0E92FE061BE2EB4FE0DC0FB2DF460AD
:100AA000BF2E09C034FE0AC0292F2660B22E06C010
:100AB00028E030E005C020E130E002C020E132E073
:100AC000F801B7FE07C060817181828193810C5F5C
:100AD0001F4F06C06081718180E090E00E5F1F4F64
:100AE000A301F1D0882E8618FB2DFF773F2E36FE0E
:100AF0000DC0232D2E7FA22E891458F434FE0BC076
:100B000032FC09C0832D8E7EA82E05C0B82CA32CE4
:100B100003C0B82C01C0B92CA4FE0FC0FE01E80D23
:100B2000F11D8081803321F49A2D997EA92E09C070
:100B3000A2FE06C0B394B39404C08A2D867809F04F
:100B4000B394A3FC10C0A0FE06C0B21480F4280C1D
:100B5000922C9B180DC0B21458F4B60180E290E0BC
:100B600076D0B394F8CFB21418F42B1802C0982C96
:100B7000212CA4FE0FC0B60180E390E068D0A2FE55
:100B800016C0A1FC03C088E790E002C088E590E0B1
:100B9000B6010CC08A2D867851F0A1FE02C08BE20E
:100BA00001C080E2A7FC8DE2B60190E050D089142C
:100BB00030F4B60180E390E04AD09A94F8CF8A945A
:100BC000F301E80DF11D8081B60190E040D0811065
:100BD000F6CF222009F44ECEB60180E290E037D065
:100BE0002A94F7CFF6018681978102C08FEF9FEF9D
:100BF0002B960FB6F894DEBF0FBECDBFDF91CF911D
:100C00001F910F91FF90EF90DF90CF90BF90AF902A
:100C10009F908F907F906F905F904F903F902F901C
:100C20000895FC010590615070400110D8F780953F
:100C300090958E0F9F1F0895FC01615070400190A8
:100C40000110D8F7809590958E0F9F1F08950F93F0
:100C50001F93CF93DF93FB01238121FD03C08FEF0F
:100C60009FEF2CC022FF16C0468157812481358119
:100C70004217530744F4A081B1819D012F5F3F4F7C
:100C8000318320838C93268137812F5F3F4F3783B9
:100C9000268314C08B01EC01FB010084F185E02D5B
:100CA0000995892BE1F6D80116968D919C9117979D
:100CB000019617969C938E931697CE01DF91CF9154
:100CC0001F910F910895FA01AA27283051F1203180
:100CD00081F1E8946F936E7F6E5F7F4F8F4F9F4FD0
:100CE000AF4FB1E03ED0B4E03CD0670F781F891F12
:100CF0009A1FA11D680F791F8A1F911DA11D6A0FE0
:100D0000711D811D911DA11D20D009F468943F9192
:100D10002AE0269F11243019305D3193DEF6CF0191
:100D20000895462F4770405D4193B3E00FD0C9F757
:100D3000F6CF462F4F70405D4A3318F0495D31FDC4
:100D40004052419302D0A9F7EACFB4E0A695979517
:100D5000879577956795BA95C9F7009761057105ED
:100D600008959B01AC010A2E069457954795379537
:100D70002795BA95C9F7620F731F841F951FA01D91
:060D80000895F894FFCF76
:100D860001000000583D256420202020202020203E
:100D96005761697400583D25642020202020204C8E
:100DA60065667400583D2564202020202020526965
:040DB60067687400F6
:00000001FF
